{
  "contractName": "TodoList",
  "abi": [
    {
      "constant": true,
      "inputs": [
        {
          "name": "",
          "type": "uint256"
        }
      ],
      "name": "tasks",
      "outputs": [
        {
          "name": "id",
          "type": "uint256"
        },
        {
          "name": "content",
          "type": "string"
        },
        {
          "name": "completed",
          "type": "bool"
        }
      ],
      "payable": false,
      "stateMutability": "view",
      "type": "function"
    },
    {
      "constant": true,
      "inputs": [],
      "name": "taskCount",
      "outputs": [
        {
          "name": "",
          "type": "uint256"
        }
      ],
      "payable": false,
      "stateMutability": "view",
      "type": "function"
    },
    {
      "inputs": [],
      "payable": false,
      "stateMutability": "nonpayable",
      "type": "constructor"
    },
    {
      "anonymous": false,
      "inputs": [
        {
          "indexed": false,
          "name": "id",
          "type": "uint256"
        },
        {
          "indexed": false,
          "name": "content",
          "type": "string"
        },
        {
          "indexed": false,
          "name": "completed",
          "type": "bool"
        }
      ],
      "name": "TaskCreated",
      "type": "event"
    },
    {
      "anonymous": false,
      "inputs": [
        {
          "indexed": false,
          "name": "id",
          "type": "uint256"
        },
        {
          "indexed": false,
          "name": "completed",
          "type": "bool"
        }
      ],
      "name": "TaskCompleted",
      "type": "event"
    },
    {
      "anonymous": false,
      "inputs": [
        {
          "indexed": false,
          "name": "id",
          "type": "uint256"
        },
        {
          "indexed": false,
          "name": "content",
          "type": "string"
        },
        {
          "indexed": false,
          "name": "completed",
          "type": "bool"
        }
      ],
      "name": "TaskUpdated",
      "type": "event"
    },
    {
      "anonymous": false,
      "inputs": [
        {
          "indexed": false,
          "name": "taskCount",
          "type": "uint256"
        }
      ],
      "name": "TaskDeleted",
      "type": "event"
    },
    {
      "constant": false,
      "inputs": [
        {
          "name": "_content",
          "type": "string"
        }
      ],
      "name": "createTask",
      "outputs": [],
      "payable": false,
      "stateMutability": "nonpayable",
      "type": "function"
    },
    {
      "constant": false,
      "inputs": [
        {
          "name": "_id",
          "type": "uint256"
        }
      ],
      "name": "toggleComplete",
      "outputs": [],
      "payable": false,
      "stateMutability": "nonpayable",
      "type": "function"
    },
    {
      "constant": false,
      "inputs": [
        {
          "name": "_id",
          "type": "uint256"
        }
      ],
      "name": "deleteTask",
      "outputs": [],
      "payable": false,
      "stateMutability": "nonpayable",
      "type": "function"
    },
    {
      "constant": false,
      "inputs": [
        {
          "name": "_id",
          "type": "uint256"
        },
        {
          "name": "_newContent",
          "type": "string"
        }
      ],
      "name": "updateTask",
      "outputs": [],
      "payable": false,
      "stateMutability": "nonpayable",
      "type": "function"
    }
  ],
  "bytecode": "0x60806040526000805534801561001457600080fd5b5060408051808201909152601781527f54686973206120706c616365686f6c646572207461736b000000000000000000602082015261005b90640100000000610060810204565b61021f565b60008054600190810180835560408051606081018252828152602080820187815282840187905293865284815291909420845181559151805192936100ad93908501929190910190610184565b5060408201518160020160006101000a81548160ff0219169083151502179055509050507f05d0fb833127fc08168556d0e7ca9554fc3f6bc843b3b7d2bf1c35aea6bab660600054826000604051808481526020018060200183151515158152602001828103825284818151815260200191508051906020019080838360005b8381101561014557818101518382015260200161012d565b50505050905090810190601f1680156101725780820380516001836020036101000a031916815260200191505b5094505050505060405180910390a150565b828054600181600116156101000203166002900490600052602060002090601f016020900481019282601f106101c557805160ff19168380011785556101f2565b828001600101855582156101f2579182015b828111156101f25782518255916020019190600101906101d7565b506101fe929150610202565b5090565b61021c91905b808211156101fe5760008155600101610208565b90565b6109d48061022e6000396000f3fe608060405260043610610071577c010000000000000000000000000000000000000000000000000000000060003504630951e5bd8114610076578063111002aa146100a2578063560f31921461015557806386533f6c1461017f5780638d97767214610239578063b6cb58a5146102ed575b600080fd5b34801561008257600080fd5b506100a06004803603602081101561009957600080fd5b5035610314565b005b3480156100ae57600080fd5b506100a0600480360360208110156100c557600080fd5b8101906020810181356401000000008111156100e057600080fd5b8201836020820111156100f257600080fd5b8035906020019184600183028401116401000000008311171561011457600080fd5b91908080601f016020809104026020016040519081016040528093929190818152602001838380828437600092019190915250929550610474945050505050565b34801561016157600080fd5b506100a06004803603602081101561017857600080fd5b5035610598565b34801561018b57600080fd5b506100a0600480360360408110156101a257600080fd5b813591908101906040810160208201356401000000008111156101c457600080fd5b8201836020820111156101d657600080fd5b803590602001918460018302840111640100000000831117156101f857600080fd5b91908080601f016020809104026020016040519081016040528093929190818152602001838380828437600092019190915250929550610606945050505050565b34801561024557600080fd5b506102636004803603602081101561025c57600080fd5b50356107ed565b604051808481526020018060200183151515158152602001828103825284818151815260200191508051906020019080838360005b838110156102b0578181015183820152602001610298565b50505050905090810190601f1680156102dd5780820380516001836020036101000a031916815260200191505b5094505050505060405180910390f35b3480156102f957600080fd5b5061030261089c565b60408051918252519081900360200190f35b61031c6108a2565b60008281526001602081815260409283902083516060810185528154815281840180548651600296821615610100026000190190911695909504601f810185900485028601850190965285855290949193858401939092908301828280156103c55780601f1061039a576101008083540402835291602001916103c5565b820191906000526020600020905b8154815290600101906020018083116103a857829003601f168201915b50505091835250506002919091015460ff16151560209182015260408083018051159052600085815260018084529190208351815583830151805194955085949193610416938501929101906108c6565b50604091820151600291909101805460ff1916911515919091179055818101518151848152901515602082015281517fe21fa966ca5cd02748c0752352d18c48165e61cb55b4c29cccf924b5a95fcff1929181900390910190a15050565b60008054600190810180835560408051606081018252828152602080820187815282840187905293865284815291909420845181559151805192936104c1939085019291909101906108c6565b5060408201518160020160006101000a81548160ff0219169083151502179055509050507f05d0fb833127fc08168556d0e7ca9554fc3f6bc843b3b7d2bf1c35aea6bab660600054826000604051808481526020018060200183151515158152602001828103825284818151815260200191508051906020019080838360005b83811015610559578181015183820152602001610541565b50505050905090810190601f1680156105865780820380516001836020036101000a031916815260200191505b5094505050505060405180910390a150565b6000818152600160208190526040822082815591906105b990830182610944565b50600201805460ff1916905560008054600019019081905560408051918252517fd078b251d950cc55c44340be1db732337ef4939a76e1367ee271ad2cb19c46af9181900360200190a150565b61060e6108a2565b60008381526001602081815260409283902083516060810185528154815281840180548651600296821615610100026000190190911695909504601f810185900485028601850190965285855290949193858401939092908301828280156106b75780601f1061068c576101008083540402835291602001916106b7565b820191906000526020600020905b81548152906001019060200180831161069a57829003601f168201915b50505091835250506002919091015460ff16151560209182015281810184815260008681526001808452604090912084518155915180519495508594929361070593928501929101906108c6565b506040918201516002918201805460ff191691151591909117905560008581526001602090815283822090920154835187815260ff90911680151594820194909452606081840181815287519183019190915286517f731243b94fd6f4071f6ac97a26cb4cff681428631c877c64cdea5371290b01c19589958995919493926080850192918701918190849084905b838110156107ac578181015183820152602001610794565b50505050905090810190601f1680156107d95780820380516001836020036101000a031916815260200191505b5094505050505060405180910390a1505050565b600160208181526000928352604092839020805481840180548651600296821615610100026000190190911695909504601f810185900485028601850190965285855290949193929091908301828280156108895780601f1061085e57610100808354040283529160200191610889565b820191906000526020600020905b81548152906001019060200180831161086c57829003601f168201915b5050506002909301549192505060ff1683565b60005481565b60606040519081016040528060008152602001606081526020016000151581525090565b828054600181600116156101000203166002900490600052602060002090601f016020900481019282601f1061090757805160ff1916838001178555610934565b82800160010185558215610934579182015b82811115610934578251825591602001919060010190610919565b5061094092915061098b565b5090565b50805460018160011615610100020316600290046000825580601f1061096a5750610988565b601f016020900490600052602060002090810190610988919061098b565b50565b6109a591905b808211156109405760008155600101610991565b9056fea165627a7a7230582045b6a8d1ce859409fa0d4df102a9abb3d163af9469135e970c412cdfb0ab5fbc0029",
  "source": "// SPDX-License-Identifier: MIT\npragma solidity >=0.4.22 <0.9.0;\n\ncontract TodoList {\nuint public taskCount = 0;\n    struct Task {\n        uint id;\n        string content;\n        bool completed;\n    }\n\n    event TaskCreated (\n        uint id,\n        string content,\n        bool completed\n    );\n\n    event TaskCompleted (\n        uint id,\n        bool completed\n    );\n\n    event TaskUpdated (\n        uint id,\n        string content,\n        bool completed\n    );\n\n    event TaskDeleted (\n        uint taskCount\n    );\n\n    constructor() public {\n        createTask(\"This a placeholder task\");\n    }\n\n    mapping(uint => Task) public tasks;\n\n    function createTask(string memory _content) public {\n        taskCount ++;\n        tasks[taskCount] = Task(taskCount, _content, false);\n        emit TaskCreated(taskCount, _content, false);\n    }\n\n    function toggleComplete(uint _id) public {\n        Task memory _task = tasks[_id];\n        _task.completed = ! _task.completed;\n        tasks[_id] = _task;\n        emit TaskCompleted(_id, _task.completed);\n\n    }\n\n    function deleteTask(uint _id) public {\n        delete tasks[_id];\n        taskCount--;\n        emit TaskDeleted(taskCount);\n    }\n\n    function updateTask(uint _id, string memory _newContent) public{\n        Task memory _task = tasks[_id];\n        _task.content = _newContent;\n        tasks[_id] = _task;\n        emit TaskUpdated(_id, _newContent, tasks[_id].completed);\n    }\n}\n",
  "sourcePath": "E:\\CODE\\Blockchain\\EthTodoList\\contracts\\TodoList.sol",
  "compiler": {
    "name": "solc",
    "version": "0.5.1+commit.c8a2cb62.Emscripten.clang"
  },
  "schemaVersion": "3.4.2",
  "updatedAt": "2021-08-15T10:11:48.440Z",
  "devdoc": {
    "methods": {}
  },
  "userdoc": {
    "methods": {}
  }
}